{
  "contractName": "Faucet",
  "abi": [
    {
      "inputs": [],
      "stateMutability": "nonpayable",
      "type": "constructor"
    },
    {
      "inputs": [
        {
          "internalType": "address",
          "name": "",
          "type": "address"
        }
      ],
      "name": "funders",
      "outputs": [
        {
          "internalType": "bool",
          "name": "",
          "type": "bool"
        }
      ],
      "stateMutability": "view",
      "type": "function",
      "constant": true
    },
    {
      "inputs": [
        {
          "internalType": "uint256",
          "name": "",
          "type": "uint256"
        }
      ],
      "name": "lutFunders",
      "outputs": [
        {
          "internalType": "address",
          "name": "",
          "type": "address"
        }
      ],
      "stateMutability": "view",
      "type": "function",
      "constant": true
    },
    {
      "inputs": [],
      "name": "numOfFunders",
      "outputs": [
        {
          "internalType": "uint256",
          "name": "",
          "type": "uint256"
        }
      ],
      "stateMutability": "view",
      "type": "function",
      "constant": true
    },
    {
      "inputs": [],
      "name": "owner",
      "outputs": [
        {
          "internalType": "address",
          "name": "",
          "type": "address"
        }
      ],
      "stateMutability": "view",
      "type": "function",
      "constant": true
    },
    {
      "stateMutability": "payable",
      "type": "receive",
      "payable": true
    },
    {
      "inputs": [],
      "name": "addFunds",
      "outputs": [],
      "stateMutability": "payable",
      "type": "function",
      "payable": true
    },
    {
      "inputs": [
        {
          "internalType": "uint256",
          "name": "withdrawAmount",
          "type": "uint256"
        }
      ],
      "name": "withdraw",
      "outputs": [],
      "stateMutability": "nonpayable",
      "type": "function"
    },
    {
      "inputs": [],
      "name": "getAllFunders",
      "outputs": [
        {
          "internalType": "address[]",
          "name": "",
          "type": "address[]"
        }
      ],
      "stateMutability": "view",
      "type": "function",
      "constant": true
    },
    {
      "inputs": [
        {
          "internalType": "uint8",
          "name": "index",
          "type": "uint8"
        }
      ],
      "name": "getFunderAtIndex",
      "outputs": [
        {
          "internalType": "address",
          "name": "",
          "type": "address"
        }
      ],
      "stateMutability": "view",
      "type": "function",
      "constant": true
    }
  ],
  "bytecode": "0x608060405234801561001057600080fd5b5033600360006101000a81548173ffffffffffffffffffffffffffffffffffffffff021916908373ffffffffffffffffffffffffffffffffffffffff1602179055506109ce806100616000396000f3fe60806040526004361061007f5760003560e01c80636fbbb55d1161004e5780636fbbb55d1461016b5780638da5cb5b14610196578063a26759cb146101c1578063af7f2c9b146101cb57610086565b8063031b36771461008b5780630a93cf33146100c85780631f8947ea146101055780632e1a7d4d1461014257610086565b3661008657005b600080fd5b34801561009757600080fd5b506100b260048036038101906100ad91906105bf565b6101f6565b6040516100bf9190610607565b60405180910390f35b3480156100d457600080fd5b506100ef60048036038101906100ea919061065b565b610216565b6040516100fc9190610697565b60405180910390f35b34801561011157600080fd5b5061012c600480360381019061012791906106e8565b610256565b6040516101399190610697565b60405180910390f35b34801561014e57600080fd5b50610169600480360381019061016491906106e8565b610289565b005b34801561017757600080fd5b50610180610320565b60405161018d91906107d3565b60405180910390f35b3480156101a257600080fd5b506101ab610418565b6040516101b89190610697565b60405180910390f35b6101c961043e565b005b3480156101d757600080fd5b506101e0610556565b6040516101ed9190610804565b60405180910390f35b60016020528060005260406000206000915054906101000a900460ff1681565b6000600260008360ff16815260200190815260200160002060009054906101000a900473ffffffffffffffffffffffffffffffffffffffff169050919050565b60026020528060005260406000206000915054906101000a900473ffffffffffffffffffffffffffffffffffffffff1681565b8067016345785d8a00008111156102d5576040517f08c379a00000000000000000000000000000000000000000000000000000000081526004016102cc906108a2565b60405180910390fd5b3373ffffffffffffffffffffffffffffffffffffffff166108fc839081150290604051600060405180830381858888f1935050505015801561031b573d6000803e3d6000fd5b505050565b60606000805467ffffffffffffffff81111561033f5761033e6108c2565b5b60405190808252806020026020018201604052801561036d5781602001602082028036833780820191505090505b50905060005b8151811015610410576002600082815260200190815260200160002060009054906101000a900473ffffffffffffffffffffffffffffffffffffffff168282815181106103c3576103c26108f1565b5b602002602001019073ffffffffffffffffffffffffffffffffffffffff16908173ffffffffffffffffffffffffffffffffffffffff168152505080806104089061094f565b915050610373565b508091505090565b600360009054906101000a900473ffffffffffffffffffffffffffffffffffffffff1681565b6000339050600160008273ffffffffffffffffffffffffffffffffffffffff1673ffffffffffffffffffffffffffffffffffffffff16815260200190815260200160002060009054906101000a900460ff166105535760018060008373ffffffffffffffffffffffffffffffffffffffff1673ffffffffffffffffffffffffffffffffffffffff16815260200190815260200160002060006101000a81548160ff02191690831515021790555080600260008060008154809291906105029061094f565b91905055815260200190815260200160002060006101000a81548173ffffffffffffffffffffffffffffffffffffffff021916908373ffffffffffffffffffffffffffffffffffffffff1602179055505b50565b60005481565b600080fd5b600073ffffffffffffffffffffffffffffffffffffffff82169050919050565b600061058c82610561565b9050919050565b61059c81610581565b81146105a757600080fd5b50565b6000813590506105b981610593565b92915050565b6000602082840312156105d5576105d461055c565b5b60006105e3848285016105aa565b91505092915050565b60008115159050919050565b610601816105ec565b82525050565b600060208201905061061c60008301846105f8565b92915050565b600060ff82169050919050565b61063881610622565b811461064357600080fd5b50565b6000813590506106558161062f565b92915050565b6000602082840312156106715761067061055c565b5b600061067f84828501610646565b91505092915050565b61069181610581565b82525050565b60006020820190506106ac6000830184610688565b92915050565b6000819050919050565b6106c5816106b2565b81146106d057600080fd5b50565b6000813590506106e2816106bc565b92915050565b6000602082840312156106fe576106fd61055c565b5b600061070c848285016106d3565b91505092915050565b600081519050919050565b600082825260208201905092915050565b6000819050602082019050919050565b61074a81610581565b82525050565b600061075c8383610741565b60208301905092915050565b6000602082019050919050565b600061078082610715565b61078a8185610720565b935061079583610731565b8060005b838110156107c65781516107ad8882610750565b97506107b883610768565b925050600181019050610799565b5085935050505092915050565b600060208201905081810360008301526107ed8184610775565b905092915050565b6107fe816106b2565b82525050565b600060208201905061081960008301846107f5565b92915050565b600082825260208201905092915050565b7f43616e6e6f74207769746864726177206d6f7265207468616e20302e3120657460008201527f6865720000000000000000000000000000000000000000000000000000000000602082015250565b600061088c60238361081f565b915061089782610830565b604082019050919050565b600060208201905081810360008301526108bb8161087f565b9050919050565b7f4e487b7100000000000000000000000000000000000000000000000000000000600052604160045260246000fd5b7f4e487b7100000000000000000000000000000000000000000000000000000000600052603260045260246000fd5b7f4e487b7100000000000000000000000000000000000000000000000000000000600052601160045260246000fd5b600061095a826106b2565b91507fffffffffffffffffffffffffffffffffffffffffffffffffffffffffffffffff82141561098d5761098c610920565b5b60018201905091905056fea26469706673582212202290a606f4920df1c7ae6b4c7e47bc6aa1c9febc6a7041b9c2ed54e8f042f71f64736f6c634300080b0033",
  "immutableReferences": {},
  "source": "// SPDX-License-Identifier: MIT\r\npragma solidity >=0.4.22 <0.9.0;\r\n\r\nimport \"./IFaucet.sol\";\r\n\r\ncontract Faucet is IFaucet {\r\n    uint256 public numOfFunders;\r\n\r\n    mapping(address => bool) public funders;\r\n    mapping(uint256 => address) public lutFunders;\r\n\r\n    address public owner;\r\n\r\n    constructor() {\r\n        owner = msg.sender;\r\n    }\r\n\r\n    modifier onlyOwner() {\r\n        require(msg.sender == owner, \"Only owner can call this function\");\r\n        _;\r\n    }\r\n\r\n    modifier limitWithdraw(uint256 withdrawAmount) {\r\n        require(\r\n            withdrawAmount <= 100000000000000000,\r\n            \"Cannot withdraw more than 0.1 ether\"\r\n        );\r\n        _;\r\n    }\r\n\r\n    receive() external payable {}\r\n\r\n    function addFunds() external payable override {\r\n        address funder = msg.sender;\r\n\r\n        if (!funders[funder]) {\r\n            funders[funder] = true;\r\n            lutFunders[numOfFunders++] = funder;\r\n        }\r\n    }\r\n\r\n    function withdraw(uint256 withdrawAmount)\r\n        external\r\n        override\r\n        limitWithdraw(withdrawAmount)\r\n    {\r\n        payable(msg.sender).transfer(withdrawAmount);\r\n    }\r\n\r\n    function getAllFunders() external view returns (address[] memory) {\r\n        address[] memory _funders = new address[](numOfFunders);\r\n\r\n        for (uint256 i = 0; i < _funders.length; i++) {\r\n            _funders[i] = lutFunders[i];\r\n        }\r\n\r\n        return _funders;\r\n    }\r\n\r\n    function getFunderAtIndex(uint8 index) external view returns (address) {\r\n        return lutFunders[index];\r\n    }\r\n}\r\n",
  "sourcePath": "D:\\An Dinh\\_TRAINING\\blockchain\\faucet-rebuild\\contracts\\FaucetContract.sol",
  "compiler": {
    "name": "solc",
    "version": "0.8.11+commit.d7f03943.Emscripten.clang"
  },
  "schemaVersion": "3.4.4",
  "updatedAt": "2022-02-12T08:09:59.502Z",
  "networkType": "ethereum",
  "devdoc": {
    "kind": "dev",
    "methods": {},
    "version": 1
  },
  "userdoc": {
    "kind": "user",
    "methods": {},
    "version": 1
  }
}