{
  "contractName": "CourseMarketplace",
  "abi": [
    {
      "inputs": [],
      "stateMutability": "nonpayable",
      "type": "constructor"
    },
    {
      "inputs": [],
      "name": "CourseHasOwner",
      "type": "error"
    },
    {
      "inputs": [],
      "name": "CourseIsNotCreated",
      "type": "error"
    },
    {
      "inputs": [],
      "name": "InvalidState",
      "type": "error"
    },
    {
      "inputs": [],
      "name": "OnlyOwner",
      "type": "error"
    },
    {
      "inputs": [],
      "name": "SenderIsNotCourseOwner",
      "type": "error"
    },
    {
      "anonymous": false,
      "inputs": [
        {
          "indexed": true,
          "internalType": "address",
          "name": "owner",
          "type": "address"
        },
        {
          "indexed": true,
          "internalType": "address",
          "name": "spender",
          "type": "address"
        },
        {
          "indexed": false,
          "internalType": "uint256",
          "name": "value",
          "type": "uint256"
        }
      ],
      "name": "Approval",
      "type": "event"
    },
    {
      "anonymous": false,
      "inputs": [
        {
          "indexed": true,
          "internalType": "address",
          "name": "from",
          "type": "address"
        },
        {
          "indexed": true,
          "internalType": "address",
          "name": "to",
          "type": "address"
        },
        {
          "indexed": false,
          "internalType": "uint256",
          "name": "value",
          "type": "uint256"
        }
      ],
      "name": "Transfer",
      "type": "event"
    },
    {
      "inputs": [
        {
          "internalType": "address",
          "name": "owner",
          "type": "address"
        },
        {
          "internalType": "address",
          "name": "spender",
          "type": "address"
        }
      ],
      "name": "allowance",
      "outputs": [
        {
          "internalType": "uint256",
          "name": "",
          "type": "uint256"
        }
      ],
      "stateMutability": "view",
      "type": "function",
      "constant": true
    },
    {
      "inputs": [
        {
          "internalType": "address",
          "name": "spender",
          "type": "address"
        },
        {
          "internalType": "uint256",
          "name": "amount",
          "type": "uint256"
        }
      ],
      "name": "approve",
      "outputs": [
        {
          "internalType": "bool",
          "name": "",
          "type": "bool"
        }
      ],
      "stateMutability": "nonpayable",
      "type": "function"
    },
    {
      "inputs": [
        {
          "internalType": "address",
          "name": "account",
          "type": "address"
        }
      ],
      "name": "balanceOf",
      "outputs": [
        {
          "internalType": "uint256",
          "name": "",
          "type": "uint256"
        }
      ],
      "stateMutability": "view",
      "type": "function",
      "constant": true
    },
    {
      "inputs": [],
      "name": "decimals",
      "outputs": [
        {
          "internalType": "uint8",
          "name": "",
          "type": "uint8"
        }
      ],
      "stateMutability": "view",
      "type": "function",
      "constant": true
    },
    {
      "inputs": [
        {
          "internalType": "address",
          "name": "spender",
          "type": "address"
        },
        {
          "internalType": "uint256",
          "name": "subtractedValue",
          "type": "uint256"
        }
      ],
      "name": "decreaseAllowance",
      "outputs": [
        {
          "internalType": "bool",
          "name": "",
          "type": "bool"
        }
      ],
      "stateMutability": "nonpayable",
      "type": "function"
    },
    {
      "inputs": [
        {
          "internalType": "address",
          "name": "spender",
          "type": "address"
        },
        {
          "internalType": "uint256",
          "name": "addedValue",
          "type": "uint256"
        }
      ],
      "name": "increaseAllowance",
      "outputs": [
        {
          "internalType": "bool",
          "name": "",
          "type": "bool"
        }
      ],
      "stateMutability": "nonpayable",
      "type": "function"
    },
    {
      "inputs": [],
      "name": "isStopped",
      "outputs": [
        {
          "internalType": "bool",
          "name": "",
          "type": "bool"
        }
      ],
      "stateMutability": "view",
      "type": "function",
      "constant": true
    },
    {
      "inputs": [],
      "name": "name",
      "outputs": [
        {
          "internalType": "string",
          "name": "",
          "type": "string"
        }
      ],
      "stateMutability": "view",
      "type": "function",
      "constant": true
    },
    {
      "inputs": [],
      "name": "symbol",
      "outputs": [
        {
          "internalType": "string",
          "name": "",
          "type": "string"
        }
      ],
      "stateMutability": "view",
      "type": "function",
      "constant": true
    },
    {
      "inputs": [],
      "name": "totalSupply",
      "outputs": [
        {
          "internalType": "uint256",
          "name": "",
          "type": "uint256"
        }
      ],
      "stateMutability": "view",
      "type": "function",
      "constant": true
    },
    {
      "inputs": [
        {
          "internalType": "address",
          "name": "to",
          "type": "address"
        },
        {
          "internalType": "uint256",
          "name": "amount",
          "type": "uint256"
        }
      ],
      "name": "transfer",
      "outputs": [
        {
          "internalType": "bool",
          "name": "",
          "type": "bool"
        }
      ],
      "stateMutability": "nonpayable",
      "type": "function"
    },
    {
      "inputs": [
        {
          "internalType": "address",
          "name": "from",
          "type": "address"
        },
        {
          "internalType": "address",
          "name": "to",
          "type": "address"
        },
        {
          "internalType": "uint256",
          "name": "amount",
          "type": "uint256"
        }
      ],
      "name": "transferFrom",
      "outputs": [
        {
          "internalType": "bool",
          "name": "",
          "type": "bool"
        }
      ],
      "stateMutability": "nonpayable",
      "type": "function"
    },
    {
      "stateMutability": "payable",
      "type": "receive",
      "payable": true
    },
    {
      "inputs": [
        {
          "internalType": "address",
          "name": "to",
          "type": "address"
        },
        {
          "internalType": "uint256",
          "name": "amount",
          "type": "uint256"
        }
      ],
      "name": "mint",
      "outputs": [],
      "stateMutability": "nonpayable",
      "type": "function"
    },
    {
      "inputs": [
        {
          "internalType": "uint256",
          "name": "amount",
          "type": "uint256"
        }
      ],
      "name": "burn",
      "outputs": [],
      "stateMutability": "nonpayable",
      "type": "function"
    },
    {
      "inputs": [],
      "name": "deposit",
      "outputs": [],
      "stateMutability": "payable",
      "type": "function",
      "payable": true
    },
    {
      "inputs": [
        {
          "internalType": "uint256",
          "name": "amount",
          "type": "uint256"
        }
      ],
      "name": "withdraw",
      "outputs": [],
      "stateMutability": "nonpayable",
      "type": "function"
    },
    {
      "inputs": [],
      "name": "emergencyWithdraw",
      "outputs": [],
      "stateMutability": "nonpayable",
      "type": "function"
    },
    {
      "inputs": [],
      "name": "selfDestruct",
      "outputs": [],
      "stateMutability": "nonpayable",
      "type": "function"
    },
    {
      "inputs": [],
      "name": "stopContract",
      "outputs": [],
      "stateMutability": "nonpayable",
      "type": "function"
    },
    {
      "inputs": [],
      "name": "resumeContract",
      "outputs": [],
      "stateMutability": "nonpayable",
      "type": "function"
    },
    {
      "inputs": [
        {
          "internalType": "bytes16",
          "name": "courseId",
          "type": "bytes16"
        },
        {
          "internalType": "bytes32",
          "name": "proof",
          "type": "bytes32"
        }
      ],
      "name": "purchaseCourse",
      "outputs": [],
      "stateMutability": "payable",
      "type": "function",
      "payable": true
    },
    {
      "inputs": [
        {
          "internalType": "bytes32",
          "name": "courseHash",
          "type": "bytes32"
        }
      ],
      "name": "repurchaseCourse",
      "outputs": [],
      "stateMutability": "payable",
      "type": "function",
      "payable": true
    },
    {
      "inputs": [
        {
          "internalType": "bytes32",
          "name": "courseHash",
          "type": "bytes32"
        }
      ],
      "name": "activateCourse",
      "outputs": [],
      "stateMutability": "nonpayable",
      "type": "function"
    },
    {
      "inputs": [
        {
          "internalType": "bytes32",
          "name": "courseHash",
          "type": "bytes32"
        }
      ],
      "name": "deactivateCourse",
      "outputs": [],
      "stateMutability": "nonpayable",
      "type": "function"
    },
    {
      "inputs": [
        {
          "internalType": "address",
          "name": "newOwner",
          "type": "address"
        }
      ],
      "name": "transferOwnership",
      "outputs": [],
      "stateMutability": "nonpayable",
      "type": "function"
    },
    {
      "inputs": [],
      "name": "getCourseCount",
      "outputs": [
        {
          "internalType": "uint256",
          "name": "",
          "type": "uint256"
        }
      ],
      "stateMutability": "view",
      "type": "function",
      "constant": true
    },
    {
      "inputs": [
        {
          "internalType": "uint256",
          "name": "index",
          "type": "uint256"
        }
      ],
      "name": "getCourseHashAtIndex",
      "outputs": [
        {
          "internalType": "bytes32",
          "name": "",
          "type": "bytes32"
        }
      ],
      "stateMutability": "view",
      "type": "function",
      "constant": true
    },
    {
      "inputs": [
        {
          "internalType": "bytes32",
          "name": "courseHash",
          "type": "bytes32"
        }
      ],
      "name": "getCourseByHash",
      "outputs": [
        {
          "components": [
            {
              "internalType": "uint256",
              "name": "id",
              "type": "uint256"
            },
            {
              "internalType": "uint256",
              "name": "price",
              "type": "uint256"
            },
            {
              "internalType": "bytes32",
              "name": "proof",
              "type": "bytes32"
            },
            {
              "internalType": "address",
              "name": "owner",
              "type": "address"
            },
            {
              "internalType": "enum CourseMarketplace.State",
              "name": "state",
              "type": "uint8"
            }
          ],
          "internalType": "struct CourseMarketplace.Course",
          "name": "",
          "type": "tuple"
        }
      ],
      "stateMutability": "view",
      "type": "function",
      "constant": true
    },
    {
      "inputs": [],
      "name": "getContractOwner",
      "outputs": [
        {
          "internalType": "address",
          "name": "",
          "type": "address"
        }
      ],
      "stateMutability": "view",
      "type": "function",
      "constant": true
    }
  ],
  "bytecode": "0x60806040526000600560006101000a81548160ff02191690831515021790555060646006553480156200003157600080fd5b506040518060400160405280600d81526020017f4d79726d69636120546f6b656e000000000000000000000000000000000000008152506040518060400160405280600381526020017f4d595200000000000000000000000000000000000000000000000000000000008152508160039080519060200190620000b6929190620002e8565b508060049080519060200190620000cf929190620002e8565b505050620000e3336200012160201b60201c565b620000ff3369021e19e0c9bab24000006200016560201b60201c565b6200011b3069152d02c7e14af68000006200016560201b60201c565b62000544565b80600a60006101000a81548173ffffffffffffffffffffffffffffffffffffffff021916908373ffffffffffffffffffffffffffffffffffffffff16021790555050565b600073ffffffffffffffffffffffffffffffffffffffff168273ffffffffffffffffffffffffffffffffffffffff161415620001d8576040517f08c379a0000000000000000000000000000000000000000000000000000000008152600401620001cf90620003f9565b60405180910390fd5b620001ec60008383620002de60201b60201c565b806002600082825462000200919062000454565b92505081905550806000808473ffffffffffffffffffffffffffffffffffffffff1673ffffffffffffffffffffffffffffffffffffffff168152602001908152602001600020600082825462000257919062000454565b925050819055508173ffffffffffffffffffffffffffffffffffffffff16600073ffffffffffffffffffffffffffffffffffffffff167fddf252ad1be2c89b69c2b068fc378daa952ba7f163c4a11628f55a4df523b3ef83604051620002be9190620004c2565b60405180910390a3620002da60008383620002e360201b60201c565b5050565b505050565b505050565b828054620002f6906200050e565b90600052602060002090601f0160209004810192826200031a576000855562000366565b82601f106200033557805160ff191683800117855562000366565b8280016001018555821562000366579182015b828111156200036557825182559160200191906001019062000348565b5b50905062000375919062000379565b5090565b5b80821115620003945760008160009055506001016200037a565b5090565b600082825260208201905092915050565b7f45524332303a206d696e7420746f20746865207a65726f206164647265737300600082015250565b6000620003e1601f8362000398565b9150620003ee82620003a9565b602082019050919050565b600060208201905081810360008301526200041481620003d2565b9050919050565b6000819050919050565b7f4e487b7100000000000000000000000000000000000000000000000000000000600052601160045260246000fd5b600062000461826200041b565b91506200046e836200041b565b9250827fffffffffffffffffffffffffffffffffffffffffffffffffffffffffffffffff03821115620004a657620004a562000425565b5b828201905092915050565b620004bc816200041b565b82525050565b6000602082019050620004d96000830184620004b1565b92915050565b7f4e487b7100000000000000000000000000000000000000000000000000000000600052602260045260246000fd5b600060028204905060018216806200052757607f821691505b602082108114156200053e576200053d620004df565b5b50919050565b61301080620005546000396000f3fe6080604052600436106101c65760003560e01c806362e4e6ac116100f7578063a457c2d711610095578063d76821cb11610064578063d76821cb1461061f578063db2e21bc1461063b578063dd62ed3e14610652578063f2fde38b1461068f576101cd565b8063a457c2d714610584578063a9059cbb146105c1578063c4bc5da5146105fe578063d0e30db014610615576101cd565b8063935d7e6d116100d1578063935d7e6d146104ee57806395d89b411461051757806396cfda06146105425780639cb8a26a1461056d576101cd565b806362e4e6ac146104375780636d11290b1461047457806370a08231146104b1576101cd565b8063392625721161016457806340c10f191161013e57806340c10f191461039e57806342966c68146103c7578063442890d5146103f05780636136e1eb1461041b576101cd565b8063392625721461030d57806339509351146103365780633f683b6a14610373576101cd565b806318160ddd116101a057806318160ddd1461025157806323b872dd1461027c5780632e1a7d4d146102b9578063313ce567146102e2576101cd565b806306fdde03146101d2578063095ea7b3146101fd57806312253a6c1461023a576101cd565b366101cd57005b600080fd5b3480156101de57600080fd5b506101e76106b8565b6040516101f49190612251565b60405180910390f35b34801561020957600080fd5b50610224600480360381019061021f919061230c565b61074a565b6040516102319190612367565b60405180910390f35b34801561024657600080fd5b5061024f61076d565b005b34801561025d57600080fd5b506102666107f6565b6040516102739190612391565b60405180910390f35b34801561028857600080fd5b506102a3600480360381019061029e91906123ac565b610800565b6040516102b09190612367565b60405180910390f35b3480156102c557600080fd5b506102e060048036038101906102db91906123ff565b61082f565b005b3480156102ee57600080fd5b506102f761096d565b6040516103049190612448565b60405180910390f35b34801561031957600080fd5b50610334600480360381019061032f9190612499565b610976565b005b34801561034257600080fd5b5061035d6004803603810190610358919061230c565b610af2565b60405161036a9190612367565b60405180910390f35b34801561037f57600080fd5b50610388610b29565b6040516103959190612367565b60405180910390f35b3480156103aa57600080fd5b506103c560048036038101906103c0919061230c565b610b3c565b005b3480156103d357600080fd5b506103ee60048036038101906103e991906123ff565b610bb6565b005b3480156103fc57600080fd5b50610405610bc3565b60405161041291906124d5565b60405180910390f35b61043560048036038101906104309190612499565b610bed565b005b34801561044357600080fd5b5061045e60048036038101906104599190612499565b610d44565b60405161046b91906125fc565b60405180910390f35b34801561048057600080fd5b5061049b600480360381019061049691906123ff565b610e20565b6040516104a89190612626565b60405180910390f35b3480156104bd57600080fd5b506104d860048036038101906104d39190612641565b610e3d565b6040516104e59190612391565b60405180910390f35b3480156104fa57600080fd5b5061051560048036038101906105109190612499565b610e85565b005b34801561052357600080fd5b5061052c6110e0565b6040516105399190612251565b60405180910390f35b34801561054e57600080fd5b50610557611172565b6040516105649190612391565b60405180910390f35b34801561057957600080fd5b5061058261117c565b005b34801561059057600080fd5b506105ab60048036038101906105a6919061230c565b61123c565b6040516105b89190612367565b60405180910390f35b3480156105cd57600080fd5b506105e860048036038101906105e3919061230c565b6112b3565b6040516105f59190612367565b60405180910390f35b34801561060a57600080fd5b506106136112d6565b005b61061d61135f565b005b610639600480360381019061063491906126c6565b61140c565b005b34801561064757600080fd5b506106506115c7565b005b34801561065e57600080fd5b5061067960048036038101906106749190612706565b61171d565b6040516106869190612391565b60405180910390f35b34801561069b57600080fd5b506106b660048036038101906106b19190612641565b6117a4565b005b6060600380546106c790612775565b80601f01602080910402602001604051908101604052809291908181526020018280546106f390612775565b80156107405780601f1061071557610100808354040283529160200191610740565b820191906000526020600020905b81548152906001019060200180831161072357829003601f168201915b5050505050905090565b60008061075561181c565b9050610762818585611824565b600191505092915050565b610775610bc3565b73ffffffffffffffffffffffffffffffffffffffff163373ffffffffffffffffffffffffffffffffffffffff16146107d9576040517f5fc483c500000000000000000000000000000000000000000000000000000000815260040160405180910390fd5b6001600560006101000a81548160ff021916908315150217905550565b6000600254905090565b60008061080b61181c565b90506108188582856119ef565b610823858585611a7b565b60019150509392505050565b610837610bc3565b73ffffffffffffffffffffffffffffffffffffffff163373ffffffffffffffffffffffffffffffffffffffff161461089b576040517f5fc483c500000000000000000000000000000000000000000000000000000000815260040160405180910390fd5b6000600a60009054906101000a900473ffffffffffffffffffffffffffffffffffffffff1673ffffffffffffffffffffffffffffffffffffffff16826040516108e3906127d8565b60006040518083038185875af1925050503d8060008114610920576040519150601f19603f3d011682016040523d82523d6000602084013e610925565b606091505b5050905080610969576040517f08c379a000000000000000000000000000000000000000000000000000000000815260040161096090612839565b60405180910390fd5b5050565b60006012905090565b600560009054906101000a900460ff161561099057600080fd5b610998610bc3565b73ffffffffffffffffffffffffffffffffffffffff163373ffffffffffffffffffffffffffffffffffffffff16146109fc576040517f5fc483c500000000000000000000000000000000000000000000000000000000815260040160405180910390fd5b610a0581611cfc565b610a3b576040517f4db0c48300000000000000000000000000000000000000000000000000000000815260040160405180910390fd5b600060076000838152602001908152602001600020905060006002811115610a6657610a6561251d565b5b8160030160149054906101000a900460ff166002811115610a8a57610a8961251d565b5b14610ac1576040517fbaf3f0f700000000000000000000000000000000000000000000000000000000815260040160405180910390fd5b60018160030160146101000a81548160ff02191690836002811115610ae957610ae861251d565b5b02179055505050565b600080610afd61181c565b9050610b1e818585610b0f858961171d565b610b199190612888565b611824565b600191505092915050565b600560009054906101000a900460ff1681565b610b44610bc3565b73ffffffffffffffffffffffffffffffffffffffff163373ffffffffffffffffffffffffffffffffffffffff1614610ba8576040517f5fc483c500000000000000000000000000000000000000000000000000000000815260040160405180910390fd5b610bb28282611d6b565b5050565b610bc03382611ecb565b50565b6000600a60009054906101000a900473ffffffffffffffffffffffffffffffffffffffff16905090565b600560009054906101000a900460ff1615610c0757600080fd5b610c1081611cfc565b610c46576040517f4db0c48300000000000000000000000000000000000000000000000000000000815260040160405180910390fd5b610c4f816120a2565b610c85576040517fcce31cc400000000000000000000000000000000000000000000000000000000815260040160405180910390fd5b6000600760008381526020019081526020016000209050600280811115610caf57610cae61251d565b5b8160030160149054906101000a900460ff166002811115610cd357610cd261251d565b5b14610d0a576040517fbaf3f0f700000000000000000000000000000000000000000000000000000000815260040160405180910390fd5b60008160030160146101000a81548160ff02191690836002811115610d3257610d3161251d565b5b02179055503481600101819055505050565b610d4c61215e565b600760008381526020019081526020016000206040518060a00160405290816000820154815260200160018201548152602001600282015481526020016003820160009054906101000a900473ffffffffffffffffffffffffffffffffffffffff1673ffffffffffffffffffffffffffffffffffffffff1673ffffffffffffffffffffffffffffffffffffffff1681526020016003820160149054906101000a900460ff166002811115610e0357610e0261251d565b5b6002811115610e1557610e1461251d565b5b815250509050919050565b600060086000838152602001908152602001600020549050919050565b60008060008373ffffffffffffffffffffffffffffffffffffffff1673ffffffffffffffffffffffffffffffffffffffff168152602001908152602001600020549050919050565b600560009054906101000a900460ff1615610e9f57600080fd5b610ea7610bc3565b73ffffffffffffffffffffffffffffffffffffffff163373ffffffffffffffffffffffffffffffffffffffff1614610f0b576040517f5fc483c500000000000000000000000000000000000000000000000000000000815260040160405180910390fd5b610f1481611cfc565b610f4a576040517f4db0c48300000000000000000000000000000000000000000000000000000000815260040160405180910390fd5b600060076000838152602001908152602001600020905060006002811115610f7557610f7461251d565b5b8160030160149054906101000a900460ff166002811115610f9957610f9861251d565b5b14610fd0576040517fbaf3f0f700000000000000000000000000000000000000000000000000000000815260040160405180910390fd5b60008160030160009054906101000a900473ffffffffffffffffffffffffffffffffffffffff1673ffffffffffffffffffffffffffffffffffffffff16826001015460405161101e906127d8565b60006040518083038185875af1925050503d806000811461105b576040519150601f19603f3d011682016040523d82523d6000602084013e611060565b606091505b50509050806110a4576040517f08c379a000000000000000000000000000000000000000000000000000000000815260040161109b90612839565b60405180910390fd5b60028260030160146101000a81548160ff021916908360028111156110cc576110cb61251d565b5b021790555060008260010181905550505050565b6060600480546110ef90612775565b80601f016020809104026020016040519081016040528092919081815260200182805461111b90612775565b80156111685780601f1061113d57610100808354040283529160200191611168565b820191906000526020600020905b81548152906001019060200180831161114b57829003601f168201915b5050505050905090565b6000600954905090565b600560009054906101000a900460ff1661119557600080fd5b61119d610bc3565b73ffffffffffffffffffffffffffffffffffffffff163373ffffffffffffffffffffffffffffffffffffffff1614611201576040517f5fc483c500000000000000000000000000000000000000000000000000000000815260040160405180910390fd5b600a60009054906101000a900473ffffffffffffffffffffffffffffffffffffffff1673ffffffffffffffffffffffffffffffffffffffff16ff5b60008061124761181c565b90506000611255828661171d565b90508381101561129a576040517f08c379a000000000000000000000000000000000000000000000000000000000815260040161129190612950565b60405180910390fd5b6112a78286868403611824565b60019250505092915050565b6000806112be61181c565b90506112cb818585611a7b565b600191505092915050565b6112de610bc3565b73ffffffffffffffffffffffffffffffffffffffff163373ffffffffffffffffffffffffffffffffffffffff1614611342576040517f5fc483c500000000000000000000000000000000000000000000000000000000815260040160405180910390fd5b6000600560006101000a81548160ff021916908315150217905550565b600560009054906101000a900460ff161561137957600080fd5b60003090508073ffffffffffffffffffffffffffffffffffffffff1663095ea7b333346040518363ffffffff1660e01b81526004016113b9929190612970565b6020604051808303816000875af11580156113d8573d6000803e3d6000fd5b505050506040513d601f19601f820116820180604052508101906113fc91906129c5565b50611408303334610800565b5050565b600560009054906101000a900460ff161561142657600080fd5b6000823360405160200161143b929190612a5b565b60405160208183030381529060405280519060200120905061145c816120a2565b15611493576040517fb0fc2d9700000000000000000000000000000000000000000000000000000000815260040160405180910390fd5b6000600960008154809291906114a890612a87565b9190505590508160086000838152602001908152602001600020819055506040518060a001604052808281526020013481526020018481526020013373ffffffffffffffffffffffffffffffffffffffff168152602001600060028111156115135761151261251d565b5b8152506007600084815260200190815260200160002060008201518160000155602082015181600101556040820151816002015560608201518160030160006101000a81548173ffffffffffffffffffffffffffffffffffffffff021916908373ffffffffffffffffffffffffffffffffffffffff16021790555060808201518160030160146101000a81548160ff021916908360028111156115b9576115b861251d565b5b021790555090505050505050565b600560009054906101000a900460ff166115e057600080fd5b6115e8610bc3565b73ffffffffffffffffffffffffffffffffffffffff163373ffffffffffffffffffffffffffffffffffffffff161461164c576040517f5fc483c500000000000000000000000000000000000000000000000000000000815260040160405180910390fd5b6000600a60009054906101000a900473ffffffffffffffffffffffffffffffffffffffff1673ffffffffffffffffffffffffffffffffffffffff1647604051611694906127d8565b60006040518083038185875af1925050503d80600081146116d1576040519150601f19603f3d011682016040523d82523d6000602084013e6116d6565b606091505b505090508061171a576040517f08c379a000000000000000000000000000000000000000000000000000000000815260040161171190612839565b60405180910390fd5b50565b6000600160008473ffffffffffffffffffffffffffffffffffffffff1673ffffffffffffffffffffffffffffffffffffffff16815260200190815260200160002060008373ffffffffffffffffffffffffffffffffffffffff1673ffffffffffffffffffffffffffffffffffffffff16815260200190815260200160002054905092915050565b6117ac610bc3565b73ffffffffffffffffffffffffffffffffffffffff163373ffffffffffffffffffffffffffffffffffffffff1614611810576040517f5fc483c500000000000000000000000000000000000000000000000000000000815260040160405180910390fd5b61181981612110565b50565b600033905090565b600073ffffffffffffffffffffffffffffffffffffffff168373ffffffffffffffffffffffffffffffffffffffff161415611894576040517f08c379a000000000000000000000000000000000000000000000000000000000815260040161188b90612b42565b60405180910390fd5b600073ffffffffffffffffffffffffffffffffffffffff168273ffffffffffffffffffffffffffffffffffffffff161415611904576040517f08c379a00000000000000000000000000000000000000000000000000000000081526004016118fb90612bd4565b60405180910390fd5b80600160008573ffffffffffffffffffffffffffffffffffffffff1673ffffffffffffffffffffffffffffffffffffffff16815260200190815260200160002060008473ffffffffffffffffffffffffffffffffffffffff1673ffffffffffffffffffffffffffffffffffffffff168152602001908152602001600020819055508173ffffffffffffffffffffffffffffffffffffffff168373ffffffffffffffffffffffffffffffffffffffff167f8c5be1e5ebec7d5bd14f71427d1e84f3dd0314c0f7b2291e5b200ac8c7c3b925836040516119e29190612391565b60405180910390a3505050565b60006119fb848461171d565b90507fffffffffffffffffffffffffffffffffffffffffffffffffffffffffffffffff8114611a755781811015611a67576040517f08c379a0000000000000000000000000000000000000000000000000000000008152600401611a5e90612c40565b60405180910390fd5b611a748484848403611824565b5b50505050565b600073ffffffffffffffffffffffffffffffffffffffff168373ffffffffffffffffffffffffffffffffffffffff161415611aeb576040517f08c379a0000000000000000000000000000000000000000000000000000000008152600401611ae290612cd2565b60405180910390fd5b600073ffffffffffffffffffffffffffffffffffffffff168273ffffffffffffffffffffffffffffffffffffffff161415611b5b576040517f08c379a0000000000000000000000000000000000000000000000000000000008152600401611b5290612d64565b60405180910390fd5b611b66838383612154565b60008060008573ffffffffffffffffffffffffffffffffffffffff1673ffffffffffffffffffffffffffffffffffffffff16815260200190815260200160002054905081811015611bec576040517f08c379a0000000000000000000000000000000000000000000000000000000008152600401611be390612df6565b60405180910390fd5b8181036000808673ffffffffffffffffffffffffffffffffffffffff1673ffffffffffffffffffffffffffffffffffffffff16815260200190815260200160002081905550816000808573ffffffffffffffffffffffffffffffffffffffff1673ffffffffffffffffffffffffffffffffffffffff1681526020019081526020016000206000828254611c7f9190612888565b925050819055508273ffffffffffffffffffffffffffffffffffffffff168473ffffffffffffffffffffffffffffffffffffffff167fddf252ad1be2c89b69c2b068fc378daa952ba7f163c4a11628f55a4df523b3ef84604051611ce39190612391565b60405180910390a3611cf6848484612159565b50505050565b60008073ffffffffffffffffffffffffffffffffffffffff166007600084815260200190815260200160002060030160009054906101000a900473ffffffffffffffffffffffffffffffffffffffff1673ffffffffffffffffffffffffffffffffffffffff1614159050919050565b600073ffffffffffffffffffffffffffffffffffffffff168273ffffffffffffffffffffffffffffffffffffffff161415611ddb576040517f08c379a0000000000000000000000000000000000000000000000000000000008152600401611dd290612e62565b60405180910390fd5b611de760008383612154565b8060026000828254611df99190612888565b92505081905550806000808473ffffffffffffffffffffffffffffffffffffffff1673ffffffffffffffffffffffffffffffffffffffff1681526020019081526020016000206000828254611e4e9190612888565b925050819055508173ffffffffffffffffffffffffffffffffffffffff16600073ffffffffffffffffffffffffffffffffffffffff167fddf252ad1be2c89b69c2b068fc378daa952ba7f163c4a11628f55a4df523b3ef83604051611eb39190612391565b60405180910390a3611ec760008383612159565b5050565b600073ffffffffffffffffffffffffffffffffffffffff168273ffffffffffffffffffffffffffffffffffffffff161415611f3b576040517f08c379a0000000000000000000000000000000000000000000000000000000008152600401611f3290612ef4565b60405180910390fd5b611f4782600083612154565b60008060008473ffffffffffffffffffffffffffffffffffffffff1673ffffffffffffffffffffffffffffffffffffffff16815260200190815260200160002054905081811015611fcd576040517f08c379a0000000000000000000000000000000000000000000000000000000008152600401611fc490612f86565b60405180910390fd5b8181036000808573ffffffffffffffffffffffffffffffffffffffff1673ffffffffffffffffffffffffffffffffffffffff1681526020019081526020016000208190555081600260008282546120249190612fa6565b92505081905550600073ffffffffffffffffffffffffffffffffffffffff168373ffffffffffffffffffffffffffffffffffffffff167fddf252ad1be2c89b69c2b068fc378daa952ba7f163c4a11628f55a4df523b3ef846040516120899190612391565b60405180910390a361209d83600084612159565b505050565b60003373ffffffffffffffffffffffffffffffffffffffff166007600084815260200190815260200160002060030160009054906101000a900473ffffffffffffffffffffffffffffffffffffffff1673ffffffffffffffffffffffffffffffffffffffff16149050919050565b80600a60006101000a81548173ffffffffffffffffffffffffffffffffffffffff021916908373ffffffffffffffffffffffffffffffffffffffff16021790555050565b505050565b505050565b6040518060a00160405280600081526020016000815260200160008019168152602001600073ffffffffffffffffffffffffffffffffffffffff168152602001600060028111156121b2576121b161251d565b5b81525090565b600081519050919050565b600082825260208201905092915050565b60005b838110156121f25780820151818401526020810190506121d7565b83811115612201576000848401525b50505050565b6000601f19601f8301169050919050565b6000612223826121b8565b61222d81856121c3565b935061223d8185602086016121d4565b61224681612207565b840191505092915050565b6000602082019050818103600083015261226b8184612218565b905092915050565b600080fd5b600073ffffffffffffffffffffffffffffffffffffffff82169050919050565b60006122a382612278565b9050919050565b6122b381612298565b81146122be57600080fd5b50565b6000813590506122d0816122aa565b92915050565b6000819050919050565b6122e9816122d6565b81146122f457600080fd5b50565b600081359050612306816122e0565b92915050565b6000806040838503121561232357612322612273565b5b6000612331858286016122c1565b9250506020612342858286016122f7565b9150509250929050565b60008115159050919050565b6123618161234c565b82525050565b600060208201905061237c6000830184612358565b92915050565b61238b816122d6565b82525050565b60006020820190506123a66000830184612382565b92915050565b6000806000606084860312156123c5576123c4612273565b5b60006123d3868287016122c1565b93505060206123e4868287016122c1565b92505060406123f5868287016122f7565b9150509250925092565b60006020828403121561241557612414612273565b5b6000612423848285016122f7565b91505092915050565b600060ff82169050919050565b6124428161242c565b82525050565b600060208201905061245d6000830184612439565b92915050565b6000819050919050565b61247681612463565b811461248157600080fd5b50565b6000813590506124938161246d565b92915050565b6000602082840312156124af576124ae612273565b5b60006124bd84828501612484565b91505092915050565b6124cf81612298565b82525050565b60006020820190506124ea60008301846124c6565b92915050565b6124f9816122d6565b82525050565b61250881612463565b82525050565b61251781612298565b82525050565b7f4e487b7100000000000000000000000000000000000000000000000000000000600052602160045260246000fd5b6003811061255d5761255c61251d565b5b50565b600081905061256e8261254c565b919050565b600061257e82612560565b9050919050565b61258e81612573565b82525050565b60a0820160008201516125aa60008501826124f0565b5060208201516125bd60208501826124f0565b5060408201516125d060408501826124ff565b5060608201516125e3606085018261250e565b5060808201516125f66080850182612585565b50505050565b600060a0820190506126116000830184612594565b92915050565b61262081612463565b82525050565b600060208201905061263b6000830184612617565b92915050565b60006020828403121561265757612656612273565b5b6000612665848285016122c1565b91505092915050565b60007fffffffffffffffffffffffffffffffff0000000000000000000000000000000082169050919050565b6126a38161266e565b81146126ae57600080fd5b50565b6000813590506126c08161269a565b92915050565b600080604083850312156126dd576126dc612273565b5b60006126eb858286016126b1565b92505060206126fc85828601612484565b9150509250929050565b6000806040838503121561271d5761271c612273565b5b600061272b858286016122c1565b925050602061273c858286016122c1565b9150509250929050565b7f4e487b7100000000000000000000000000000000000000000000000000000000600052602260045260246000fd5b6000600282049050600182168061278d57607f821691505b602082108114156127a1576127a0612746565b5b50919050565b600081905092915050565b50565b60006127c26000836127a7565b91506127cd826127b2565b600082019050919050565b60006127e3826127b5565b9150819050919050565b7f5472616e73666572206661696c65642100000000000000000000000000000000600082015250565b60006128236010836121c3565b915061282e826127ed565b602082019050919050565b6000602082019050818103600083015261285281612816565b9050919050565b7f4e487b7100000000000000000000000000000000000000000000000000000000600052601160045260246000fd5b6000612893826122d6565b915061289e836122d6565b9250827fffffffffffffffffffffffffffffffffffffffffffffffffffffffffffffffff038211156128d3576128d2612859565b5b828201905092915050565b7f45524332303a2064656372656173656420616c6c6f77616e63652062656c6f7760008201527f207a65726f000000000000000000000000000000000000000000000000000000602082015250565b600061293a6025836121c3565b9150612945826128de565b604082019050919050565b600060208201905081810360008301526129698161292d565b9050919050565b600060408201905061298560008301856124c6565b6129926020830184612382565b9392505050565b6129a28161234c565b81146129ad57600080fd5b50565b6000815190506129bf81612999565b92915050565b6000602082840312156129db576129da612273565b5b60006129e9848285016129b0565b91505092915050565b6000819050919050565b612a0d612a088261266e565b6129f2565b82525050565b60008160601b9050919050565b6000612a2b82612a13565b9050919050565b6000612a3d82612a20565b9050919050565b612a55612a5082612298565b612a32565b82525050565b6000612a6782856129fc565b601082019150612a778284612a44565b6014820191508190509392505050565b6000612a92826122d6565b91507fffffffffffffffffffffffffffffffffffffffffffffffffffffffffffffffff821415612ac557612ac4612859565b5b600182019050919050565b7f45524332303a20617070726f76652066726f6d20746865207a65726f2061646460008201527f7265737300000000000000000000000000000000000000000000000000000000602082015250565b6000612b2c6024836121c3565b9150612b3782612ad0565b604082019050919050565b60006020820190508181036000830152612b5b81612b1f565b9050919050565b7f45524332303a20617070726f766520746f20746865207a65726f20616464726560008201527f7373000000000000000000000000000000000000000000000000000000000000602082015250565b6000612bbe6022836121c3565b9150612bc982612b62565b604082019050919050565b60006020820190508181036000830152612bed81612bb1565b9050919050565b7f45524332303a20696e73756666696369656e7420616c6c6f77616e6365000000600082015250565b6000612c2a601d836121c3565b9150612c3582612bf4565b602082019050919050565b60006020820190508181036000830152612c5981612c1d565b9050919050565b7f45524332303a207472616e736665722066726f6d20746865207a65726f20616460008201527f6472657373000000000000000000000000000000000000000000000000000000602082015250565b6000612cbc6025836121c3565b9150612cc782612c60565b604082019050919050565b60006020820190508181036000830152612ceb81612caf565b9050919050565b7f45524332303a207472616e7366657220746f20746865207a65726f206164647260008201527f6573730000000000000000000000000000000000000000000000000000000000602082015250565b6000612d4e6023836121c3565b9150612d5982612cf2565b604082019050919050565b60006020820190508181036000830152612d7d81612d41565b9050919050565b7f45524332303a207472616e7366657220616d6f756e742065786365656473206260008201527f616c616e63650000000000000000000000000000000000000000000000000000602082015250565b6000612de06026836121c3565b9150612deb82612d84565b604082019050919050565b60006020820190508181036000830152612e0f81612dd3565b9050919050565b7f45524332303a206d696e7420746f20746865207a65726f206164647265737300600082015250565b6000612e4c601f836121c3565b9150612e5782612e16565b602082019050919050565b60006020820190508181036000830152612e7b81612e3f565b9050919050565b7f45524332303a206275726e2066726f6d20746865207a65726f2061646472657360008201527f7300000000000000000000000000000000000000000000000000000000000000602082015250565b6000612ede6021836121c3565b9150612ee982612e82565b604082019050919050565b60006020820190508181036000830152612f0d81612ed1565b9050919050565b7f45524332303a206275726e20616d6f756e7420657863656564732062616c616e60008201527f6365000000000000000000000000000000000000000000000000000000000000602082015250565b6000612f706022836121c3565b9150612f7b82612f14565b604082019050919050565b60006020820190508181036000830152612f9f81612f63565b9050919050565b6000612fb1826122d6565b9150612fbc836122d6565b925082821015612fcf57612fce612859565b5b82820390509291505056fea26469706673582212203a488aabb10aa57f723148fdace74caa08ae7206c393a46f373a5f5407c5f4bc64736f6c634300080b0033",
  "immutableReferences": {},
  "source": "// SPDX-License-Identifier: MIT\r\npragma solidity >=0.4.22 <0.9.0;\r\n\r\nimport \"./ERC20.sol\";\r\n\r\n// import \"https://github.com/OpenZeppelin/openzeppelin-contracts/blob/master/contracts/token/ERC20/ERC20.sol\";\r\n\r\ncontract CourseMarketplace is ERC20 {\r\n    enum State {\r\n        Purchased,\r\n        Activated,\r\n        Deactivated\r\n    }\r\n\r\n    struct Course {\r\n        uint256 id; // 32\r\n        uint256 price; // 32\r\n        bytes32 proof; // 32\r\n        address owner; // 20\r\n        State state; // 1\r\n    }\r\n\r\n    bool public isStopped = false;\r\n\r\n    uint256 private rateEthToMyr = 100;\r\n\r\n    // mapping of courseHash to Course data\r\n    mapping(bytes32 => Course) private ownedCourses;\r\n\r\n    // mapping of courseID to courseHash\r\n    mapping(uint256 => bytes32) private ownedCourseHash;\r\n\r\n    // number of all courses + id of the course\r\n    uint256 private totalOwnedCourses;\r\n\r\n    address payable private owner;\r\n\r\n    constructor() ERC20(\"Myrmica Token\", \"MYR\") {\r\n        setContractOwner(msg.sender);\r\n        _mint(msg.sender, 10000 * 10**18);\r\n        _mint(address(this), 100000 * 10**18);\r\n    }\r\n\r\n    /// Course is not created!\r\n    error CourseIsNotCreated();\r\n\r\n    /// Course has invalid state\r\n    error InvalidState();\r\n\r\n    /// Course has already a Owner!\r\n    error CourseHasOwner();\r\n\r\n    /// Sender is not course owner!\r\n    error SenderIsNotCourseOwner();\r\n\r\n    /// Only owner has an access!\r\n    error OnlyOwner();\r\n\r\n    modifier onlyOwner() {\r\n        if (msg.sender != getContractOwner()) {\r\n            revert OnlyOwner();\r\n        }\r\n        _;\r\n    }\r\n\r\n    modifier onlyWhenNotStopped() {\r\n        require(!isStopped);\r\n        _;\r\n    }\r\n\r\n    modifier onlyWhenStopped() {\r\n        require(isStopped);\r\n        _;\r\n    }\r\n\r\n    receive() external payable {}\r\n\r\n    function mint(address to, uint256 amount) external onlyOwner {\r\n        _mint(to, amount);\r\n    }\r\n\r\n    function burn(uint256 amount) external {\r\n        _burn(msg.sender, amount);\r\n    }\r\n\r\n    function deposit() external payable onlyWhenNotStopped {\r\n        CourseMarketplace courseMarketPlace = CourseMarketplace(\r\n            payable(address(this))\r\n        );\r\n        courseMarketPlace.approve(msg.sender, msg.value);\r\n        transferFrom(payable(address(this)), msg.sender, msg.value);\r\n    }\r\n\r\n    function withdraw(uint256 amount) external onlyOwner {\r\n        (bool success, ) = owner.call{value: amount}(\"\");\r\n        require(success, \"Transfer failed!\");\r\n    }\r\n\r\n    function emergencyWithdraw() external onlyWhenStopped onlyOwner {\r\n        (bool success, ) = owner.call{value: address(this).balance}(\"\");\r\n        require(success, \"Transfer failed!\");\r\n    }\r\n\r\n    function selfDestruct() external onlyWhenStopped onlyOwner {\r\n        selfdestruct(owner);\r\n    }\r\n\r\n    function stopContract() external onlyOwner {\r\n        isStopped = true;\r\n    }\r\n\r\n    function resumeContract() external onlyOwner {\r\n        isStopped = false;\r\n    }\r\n\r\n    function purchaseCourse(\r\n        bytes16 courseId, // 0x00000000000000000000000000003130\r\n        // 0x31343130343734000000000000000000\r\n        // 0x7365c778f2cd9ebbc8bf9cc954bf7486b70f35ba3d0f2124859dd86b5ec7b997\r\n        // 5495000000000000\r\n        bytes32 proof // 0x0000000000000000000000000000313000000000000000000000000000003130\r\n    ) external payable onlyWhenNotStopped {\r\n        bytes32 courseHash = keccak256(abi.encodePacked(courseId, msg.sender));\r\n\r\n        if (hasCourseOwnership(courseHash)) {\r\n            revert CourseHasOwner();\r\n        }\r\n\r\n        uint256 id = totalOwnedCourses++;\r\n\r\n        ownedCourseHash[id] = courseHash;\r\n        ownedCourses[courseHash] = Course({\r\n            id: id,\r\n            price: msg.value,\r\n            proof: proof,\r\n            owner: msg.sender,\r\n            state: State.Purchased\r\n        });\r\n    }\r\n\r\n    function repurchaseCourse(bytes32 courseHash)\r\n        external\r\n        payable\r\n        onlyWhenNotStopped\r\n    {\r\n        if (!isCourseCreated(courseHash)) {\r\n            revert CourseIsNotCreated();\r\n        }\r\n\r\n        if (!hasCourseOwnership(courseHash)) {\r\n            revert SenderIsNotCourseOwner();\r\n        }\r\n\r\n        Course storage course = ownedCourses[courseHash];\r\n\r\n        if (course.state != State.Deactivated) {\r\n            revert InvalidState();\r\n        }\r\n\r\n        course.state = State.Purchased;\r\n        course.price = msg.value;\r\n    }\r\n\r\n    function activateCourse(bytes32 courseHash)\r\n        external\r\n        onlyWhenNotStopped\r\n        onlyOwner\r\n    {\r\n        if (!isCourseCreated(courseHash)) {\r\n            revert CourseIsNotCreated();\r\n        }\r\n\r\n        Course storage course = ownedCourses[courseHash];\r\n\r\n        if (course.state != State.Purchased) {\r\n            revert InvalidState();\r\n        }\r\n\r\n        course.state = State.Activated;\r\n    }\r\n\r\n    function deactivateCourse(bytes32 courseHash)\r\n        external\r\n        onlyWhenNotStopped\r\n        onlyOwner\r\n    {\r\n        if (!isCourseCreated(courseHash)) {\r\n            revert CourseIsNotCreated();\r\n        }\r\n\r\n        Course storage course = ownedCourses[courseHash];\r\n\r\n        if (course.state != State.Purchased) {\r\n            revert InvalidState();\r\n        }\r\n\r\n        (bool success, ) = course.owner.call{value: course.price}(\"\");\r\n        require(success, \"Transfer failed!\");\r\n\r\n        course.state = State.Deactivated;\r\n        course.price = 0;\r\n    }\r\n\r\n    function transferOwnership(address newOwner) external onlyOwner {\r\n        setContractOwner(newOwner);\r\n    }\r\n\r\n    function getCourseCount() external view returns (uint256) {\r\n        return totalOwnedCourses;\r\n    }\r\n\r\n    function getCourseHashAtIndex(uint256 index)\r\n        external\r\n        view\r\n        returns (bytes32)\r\n    {\r\n        return ownedCourseHash[index];\r\n    }\r\n\r\n    function getCourseByHash(bytes32 courseHash)\r\n        external\r\n        view\r\n        returns (Course memory)\r\n    {\r\n        return ownedCourses[courseHash];\r\n    }\r\n\r\n    function getContractOwner() public view returns (address) {\r\n        return owner;\r\n    }\r\n\r\n    function setContractOwner(address newOwner) private {\r\n        owner = payable(newOwner);\r\n    }\r\n\r\n    function isCourseCreated(bytes32 courseHash) private view returns (bool) {\r\n        return\r\n            ownedCourses[courseHash].owner !=\r\n            0x0000000000000000000000000000000000000000;\r\n    }\r\n\r\n    function hasCourseOwnership(bytes32 courseHash)\r\n        private\r\n        view\r\n        returns (bool)\r\n    {\r\n        return ownedCourses[courseHash].owner == msg.sender;\r\n    }\r\n}\r\n",
  "sourcePath": "D:\\An_Dinh\\_training\\blockchain\\marketplace-eth\\contracts\\CourseMarketplace.sol",
  "compiler": {
    "name": "solc",
    "version": "0.8.11+commit.d7f03943.Emscripten.clang"
  },
  "schemaVersion": "3.4.5",
  "updatedAt": "2022-03-31T09:08:25.155Z",
  "networkType": "ethereum",
  "devdoc": {
    "kind": "dev",
    "methods": {
      "allowance(address,address)": {
        "details": "See {IERC20-allowance}."
      },
      "approve(address,uint256)": {
        "details": "See {IERC20-approve}. NOTE: If `amount` is the maximum `uint256`, the allowance is not updated on `transferFrom`. This is semantically equivalent to an infinite approval. Requirements: - `spender` cannot be the zero address."
      },
      "balanceOf(address)": {
        "details": "See {IERC20-balanceOf}."
      },
      "decimals()": {
        "details": "Returns the number of decimals used to get its user representation. For example, if `decimals` equals `2`, a balance of `505` tokens should be displayed to a user as `5.05` (`505 / 10 ** 2`). Tokens usually opt for a value of 18, imitating the relationship between Ether and Wei. This is the value {ERC20} uses, unless this function is overridden; NOTE: This information is only used for _display_ purposes: it in no way affects any of the arithmetic of the contract, including {IERC20-balanceOf} and {IERC20-transfer}."
      },
      "decreaseAllowance(address,uint256)": {
        "details": "Atomically decreases the allowance granted to `spender` by the caller. This is an alternative to {approve} that can be used as a mitigation for problems described in {IERC20-approve}. Emits an {Approval} event indicating the updated allowance. Requirements: - `spender` cannot be the zero address. - `spender` must have allowance for the caller of at least `subtractedValue`."
      },
      "increaseAllowance(address,uint256)": {
        "details": "Atomically increases the allowance granted to `spender` by the caller. This is an alternative to {approve} that can be used as a mitigation for problems described in {IERC20-approve}. Emits an {Approval} event indicating the updated allowance. Requirements: - `spender` cannot be the zero address."
      },
      "name()": {
        "details": "Returns the name of the token."
      },
      "symbol()": {
        "details": "Returns the symbol of the token, usually a shorter version of the name."
      },
      "totalSupply()": {
        "details": "See {IERC20-totalSupply}."
      },
      "transfer(address,uint256)": {
        "details": "See {IERC20-transfer}. Requirements: - `to` cannot be the zero address. - the caller must have a balance of at least `amount`."
      },
      "transferFrom(address,address,uint256)": {
        "details": "See {IERC20-transferFrom}. Emits an {Approval} event indicating the updated allowance. This is not required by the EIP. See the note at the beginning of {ERC20}. NOTE: Does not update the allowance if the current allowance is the maximum `uint256`. Requirements: - `from` and `to` cannot be the zero address. - `from` must have a balance of at least `amount`. - the caller must have allowance for ``from``'s tokens of at least `amount`."
      }
    },
    "version": 1
  },
  "userdoc": {
    "errors": {
      "CourseHasOwner()": [
        {
          "notice": "Course has already a Owner!"
        }
      ],
      "CourseIsNotCreated()": [
        {
          "notice": "Course is not created!"
        }
      ],
      "InvalidState()": [
        {
          "notice": "Course has invalid state"
        }
      ],
      "OnlyOwner()": [
        {
          "notice": "Only owner has an access!"
        }
      ],
      "SenderIsNotCourseOwner()": [
        {
          "notice": "Sender is not course owner!"
        }
      ]
    },
    "kind": "user",
    "methods": {},
    "version": 1
  }
}