{
  "contractName": "Faucet",
  "abi": [
    {
      "inputs": [],
      "name": "numOfFunders",
      "outputs": [
        {
          "internalType": "uint256",
          "name": "",
          "type": "uint256"
        }
      ],
      "stateMutability": "view",
      "type": "function",
      "constant": true
    },
    {
      "inputs": [],
      "name": "owner",
      "outputs": [
        {
          "internalType": "address",
          "name": "",
          "type": "address"
        }
      ],
      "stateMutability": "view",
      "type": "function",
      "constant": true
    },
    {
      "inputs": [],
      "name": "test3",
      "outputs": [
        {
          "internalType": "uint256",
          "name": "",
          "type": "uint256"
        }
      ],
      "stateMutability": "pure",
      "type": "function",
      "constant": true
    },
    {
      "inputs": [],
      "name": "testNum",
      "outputs": [
        {
          "internalType": "uint256",
          "name": "",
          "type": "uint256"
        }
      ],
      "stateMutability": "view",
      "type": "function",
      "constant": true
    },
    {
      "stateMutability": "payable",
      "type": "receive",
      "payable": true
    },
    {
      "inputs": [],
      "name": "emitLog",
      "outputs": [
        {
          "internalType": "bytes32",
          "name": "",
          "type": "bytes32"
        }
      ],
      "stateMutability": "pure",
      "type": "function",
      "constant": true
    },
    {
      "inputs": [
        {
          "internalType": "address",
          "name": "newOwner",
          "type": "address"
        }
      ],
      "name": "transferOwnership",
      "outputs": [],
      "stateMutability": "nonpayable",
      "type": "function"
    },
    {
      "inputs": [],
      "name": "addFunds",
      "outputs": [],
      "stateMutability": "payable",
      "type": "function",
      "payable": true
    },
    {
      "inputs": [],
      "name": "test1",
      "outputs": [],
      "stateMutability": "nonpayable",
      "type": "function"
    },
    {
      "inputs": [],
      "name": "test2",
      "outputs": [],
      "stateMutability": "nonpayable",
      "type": "function"
    },
    {
      "inputs": [
        {
          "internalType": "uint256",
          "name": "withdrawAmount",
          "type": "uint256"
        }
      ],
      "name": "withdraw",
      "outputs": [],
      "stateMutability": "nonpayable",
      "type": "function"
    },
    {
      "inputs": [],
      "name": "getAllFunders",
      "outputs": [
        {
          "internalType": "address[]",
          "name": "",
          "type": "address[]"
        }
      ],
      "stateMutability": "view",
      "type": "function",
      "constant": true
    },
    {
      "inputs": [
        {
          "internalType": "uint8",
          "name": "index",
          "type": "uint8"
        }
      ],
      "name": "getFunderAtIndex",
      "outputs": [
        {
          "internalType": "address",
          "name": "",
          "type": "address"
        }
      ],
      "stateMutability": "view",
      "type": "function",
      "constant": true
    }
  ],
  "bytecode": "0x608060405234801561001057600080fd5b50336000806101000a81548173ffffffffffffffffffffffffffffffffffffffff021916908373ffffffffffffffffffffffffffffffffffffffff1602179055506103e8600181905550610cbf806100696000396000f3fe6080604052600436106100ab5760003560e01c80638da5cb5b116100645780638da5cb5b146101a1578063a26759cb146101cc578063ae28f1ed146101d6578063af7f2c9b14610201578063f2fde38b1461022c578063f42c13bf14610255576100b2565b80630a8e8e01146100b75780630a93cf33146100e25780632e1a7d4d1461011f57806366e41cb7146101485780636b59084d1461015f5780636fbbb55d14610176576100b2565b366100b257005b600080fd5b3480156100c357600080fd5b506100cc610280565b6040516100d991906107d6565b60405180910390f35b3480156100ee57600080fd5b506101096004803603810190610104919061082f565b610289565b604051610116919061089d565b60405180910390f35b34801561012b57600080fd5b50610146600480360381019061014191906108e4565b6102c9565b005b34801561015457600080fd5b5061015d610360565b005b34801561016b57600080fd5b506101746103f0565b005b34801561018257600080fd5b5061018b610480565b60405161019891906109cf565b60405180910390f35b3480156101ad57600080fd5b506101b661057a565b6040516101c3919061089d565b60405180910390f35b6101d461059e565b005b3480156101e257600080fd5b506101eb6106b8565b6040516101f891906107d6565b60405180910390f35b34801561020d57600080fd5b506102166106be565b60405161022391906107d6565b60405180910390f35b34801561023857600080fd5b50610253600480360381019061024e9190610a1d565b6106c4565b005b34801561026157600080fd5b5061026a610795565b6040516102779190610a63565b60405180910390f35b60006064905090565b6000600460008360ff16815260200190815260200160002060009054906101000a900473ffffffffffffffffffffffffffffffffffffffff169050919050565b8067016345785d8a0000811115610315576040517f08c379a000000000000000000000000000000000000000000000000000000000815260040161030c90610b01565b60405180910390fd5b3373ffffffffffffffffffffffffffffffffffffffff166108fc839081150290604051600060405180830381858888f1935050505015801561035b573d6000803e3d6000fd5b505050565b60008054906101000a900473ffffffffffffffffffffffffffffffffffffffff1673ffffffffffffffffffffffffffffffffffffffff163373ffffffffffffffffffffffffffffffffffffffff16146103ee576040517f08c379a00000000000000000000000000000000000000000000000000000000081526004016103e590610b93565b60405180910390fd5b565b60008054906101000a900473ffffffffffffffffffffffffffffffffffffffff1673ffffffffffffffffffffffffffffffffffffffff163373ffffffffffffffffffffffffffffffffffffffff161461047e576040517f08c379a000000000000000000000000000000000000000000000000000000000815260040161047590610b93565b60405180910390fd5b565b6060600060025467ffffffffffffffff8111156104a05761049f610bb3565b5b6040519080825280602002602001820160405280156104ce5781602001602082028036833780820191505090505b50905060005b600254811015610572576004600082815260200190815260200160002060009054906101000a900473ffffffffffffffffffffffffffffffffffffffff1682828151811061052557610524610be2565b5b602002602001019073ffffffffffffffffffffffffffffffffffffffff16908173ffffffffffffffffffffffffffffffffffffffff1681525050808061056a90610c40565b9150506104d4565b508091505090565b60008054906101000a900473ffffffffffffffffffffffffffffffffffffffff1681565b6000339050600360008273ffffffffffffffffffffffffffffffffffffffff1673ffffffffffffffffffffffffffffffffffffffff16815260200190815260200160002060009054906101000a900460ff166106b5576001600360008373ffffffffffffffffffffffffffffffffffffffff1673ffffffffffffffffffffffffffffffffffffffff16815260200190815260200160002060006101000a81548160ff02191690831515021790555080600460006002600081548092919061066490610c40565b91905055815260200190815260200160002060006101000a81548173ffffffffffffffffffffffffffffffffffffffff021916908373ffffffffffffffffffffffffffffffffffffffff1602179055505b50565b60015481565b60025481565b60008054906101000a900473ffffffffffffffffffffffffffffffffffffffff1673ffffffffffffffffffffffffffffffffffffffff163373ffffffffffffffffffffffffffffffffffffffff1614610752576040517f08c379a000000000000000000000000000000000000000000000000000000000815260040161074990610b93565b60405180910390fd5b806000806101000a81548173ffffffffffffffffffffffffffffffffffffffff021916908373ffffffffffffffffffffffffffffffffffffffff16021790555050565b60007f48656c6c6f20576f726c64000000000000000000000000000000000000000000905090565b6000819050919050565b6107d0816107bd565b82525050565b60006020820190506107eb60008301846107c7565b92915050565b600080fd5b600060ff82169050919050565b61080c816107f6565b811461081757600080fd5b50565b60008135905061082981610803565b92915050565b600060208284031215610845576108446107f1565b5b60006108538482850161081a565b91505092915050565b600073ffffffffffffffffffffffffffffffffffffffff82169050919050565b60006108878261085c565b9050919050565b6108978161087c565b82525050565b60006020820190506108b2600083018461088e565b92915050565b6108c1816107bd565b81146108cc57600080fd5b50565b6000813590506108de816108b8565b92915050565b6000602082840312156108fa576108f96107f1565b5b6000610908848285016108cf565b91505092915050565b600081519050919050565b600082825260208201905092915050565b6000819050602082019050919050565b6109468161087c565b82525050565b6000610958838361093d565b60208301905092915050565b6000602082019050919050565b600061097c82610911565b610986818561091c565b93506109918361092d565b8060005b838110156109c25781516109a9888261094c565b97506109b483610964565b925050600181019050610995565b5085935050505092915050565b600060208201905081810360008301526109e98184610971565b905092915050565b6109fa8161087c565b8114610a0557600080fd5b50565b600081359050610a17816109f1565b92915050565b600060208284031215610a3357610a326107f1565b5b6000610a4184828501610a08565b91505092915050565b6000819050919050565b610a5d81610a4a565b82525050565b6000602082019050610a786000830184610a54565b92915050565b600082825260208201905092915050565b7f43616e6e6f74207769746864726177206d6f7265207468616e20302e3120657460008201527f6865720000000000000000000000000000000000000000000000000000000000602082015250565b6000610aeb602383610a7e565b9150610af682610a8f565b604082019050919050565b60006020820190508181036000830152610b1a81610ade565b9050919050565b7f4f6e6c79206f776e65722063616e2063616c6c20746869732066756e6374696f60008201527f6e00000000000000000000000000000000000000000000000000000000000000602082015250565b6000610b7d602183610a7e565b9150610b8882610b21565b604082019050919050565b60006020820190508181036000830152610bac81610b70565b9050919050565b7f4e487b7100000000000000000000000000000000000000000000000000000000600052604160045260246000fd5b7f4e487b7100000000000000000000000000000000000000000000000000000000600052603260045260246000fd5b7f4e487b7100000000000000000000000000000000000000000000000000000000600052601160045260246000fd5b6000610c4b826107bd565b91507fffffffffffffffffffffffffffffffffffffffffffffffffffffffffffffffff821415610c7e57610c7d610c11565b5b60018201905091905056fea26469706673582212207608c4725fc41cbd60c475b3c4dc3d0790f2e728de0ffedd36c5a3bd384660ab64736f6c634300080b0033",
  "immutableReferences": {},
  "source": "// SPDX-License-Identifier: MIT\r\npragma solidity >=0.4.22 <0.9.0;\r\n\r\nimport \"./Owned.sol\";\r\nimport \"./Logger.sol\";\r\nimport \"./IFaucet.sol\";\r\n\r\ncontract Faucet is Owned, Logger, IFaucet {\r\n    // this is a special function\r\n    // it's called when you make a tx that doesn't specify\r\n    // function name to call\r\n\r\n    // External function are part of the contract interface\r\n    // which means they can be called via contracts and other txs\r\n\r\n    uint256 public numOfFunders;\r\n\r\n    mapping(address => bool) private funders;\r\n    mapping(uint256 => address) private lutFunders;\r\n\r\n    modifier limitWithdraw(uint256 withdrawAmount) {\r\n        require(\r\n            withdrawAmount <= 100000000000000000,\r\n            \"Cannot withdraw more than 0.1 ether\"\r\n        );\r\n        _;\r\n    }\r\n\r\n    // truffle console\r\n    // instance =\r\n\r\n    // private -> can be accesible only within the smart contract\r\n    // internal -> can be accessible within SC and also deprived SC\r\n\r\n    receive() external payable {}\r\n\r\n    function emitLog() public pure override returns (bytes32) {\r\n        return \"Hello World\";\r\n    }\r\n\r\n    function transferOwnership(address newOwner) external onlyOwner {\r\n        owner = newOwner;\r\n    }\r\n\r\n    function addFunds() external payable override {\r\n        address funder = msg.sender;\r\n\r\n        if (!funders[funder]) {\r\n            funders[funder] = true;\r\n            lutFunders[numOfFunders++] = funder;\r\n        }\r\n    }\r\n\r\n    function test1() external onlyOwner {\r\n        // some managing stuff that only admin should have access to\r\n    }\r\n\r\n    function test2() external onlyOwner {\r\n        // some managing stuff that only admin should have access to\r\n    }\r\n\r\n    function withdraw(uint256 withdrawAmount)\r\n        external\r\n        override\r\n        limitWithdraw(withdrawAmount)\r\n    {\r\n        payable(msg.sender).transfer(withdrawAmount);\r\n    }\r\n\r\n    function getAllFunders() external view returns (address[] memory) {\r\n        address[] memory _funders = new address[](numOfFunders);\r\n\r\n        for (uint256 i = 0; i < numOfFunders; i++) {\r\n            _funders[i] = lutFunders[i];\r\n        }\r\n\r\n        return _funders;\r\n    }\r\n\r\n    function getFunderAtIndex(uint8 index) external view returns (address) {\r\n        return lutFunders[index];\r\n    }\r\n\r\n    // pure, view - read-only call, no gas fee -> free\r\n    // view - it indicates that the function will not alter the storage state in any way\r\n    // pure - even more strict, indicating that it won't even read the storage state\r\n\r\n    // Transactions (can generate state changes) and require gas fee\r\n\r\n    // to talk to the node on the network you can make JSON-RPC http calls\r\n}\r\n\r\n// const instance = await Faucet.deployed()\r\n// instance.addFunds({value: \"2000000000000000000\", from: accounts[0]})\r\n// instance.addFunds({value: \"2000000000000000000\", from: accounts[1]})\r\n\r\n// instance.withdraw(\"50000000000000000\", {from: accounts[1]})\r\n// instance.withdraw(\"5000000000000000000\", {from: accounts[1]})\r\n// instance.withdraw(\"1000000000000000000\", {from: accounts[1]})\r\n\r\n// instance.getFunderAtIndex(0)\r\n// instance.getAllFunders()\r\n",
  "sourcePath": "D:\\An Dinh\\_TRAINING\\blockchain\\faucet\\contracts\\FaucetContract.sol",
  "compiler": {
    "name": "solc",
    "version": "0.8.11+commit.d7f03943.Emscripten.clang"
  },
  "schemaVersion": "3.4.4",
  "updatedAt": "2022-02-12T07:02:03.634Z",
  "networkType": "ethereum",
  "devdoc": {
    "kind": "dev",
    "methods": {},
    "version": 1
  },
  "userdoc": {
    "kind": "user",
    "methods": {},
    "version": 1
  }
}