{
  "contractName": "Test",
  "abi": [
    {
      "inputs": [],
      "name": "test2",
      "outputs": [
        {
          "internalType": "uint256",
          "name": "data",
          "type": "uint256"
        }
      ],
      "stateMutability": "pure",
      "type": "function"
    }
  ],
  "bytecode": "0x608060405261012c60005534801561001657600080fd5b5060c8806100256000396000f3fe6080604052348015600f57600080fd5b506004361060285760003560e01c806366e41cb714602d575b600080fd5b60336047565b604051603e91906079565b60405180910390f35b60006040516468656c6c6f6000820152600081015191505090565b6000819050919050565b6073816062565b82525050565b6000602082019050608c6000830184606c565b9291505056fea2646970667358221220708d5ea242dbb603d3a9efad7af454457bb84b7c2fa0511689e07a309559657f64736f6c634300080b0033",
  "immutableReferences": {},
  "source": "// SPDX-License-Identifier: MIT\r\npragma solidity >=0.4.22 <0.9.0;\r\n\r\ncontract Test {\r\n    uint256 test = 300;\r\n\r\n    /* function test(uint256 testNum) external pure returns (uint256 data) {\r\n        assembly {\r\n            // let _number := 4\r\n            // let _fmp := mload(0x40)\r\n            mstore(0x40, 0x90)\r\n        }\r\n\r\n        uint8[3] memory items = [1, 2, 3];\r\n\r\n        assembly {\r\n            data := mload(add(0x90, 0x20))\r\n            data := mload(add(0x90, 0x40))\r\n        }\r\n    } */\r\n\r\n    function test2() external pure returns (uint256 data) {\r\n        assembly {\r\n            let fmp := mload(0x40)\r\n            // hello\r\n            mstore(add(fmp, 0x00), 0x68656C6C6F)\r\n            data := mload(add(fmp, 0x00))\r\n        }\r\n    }\r\n}\r\n",
  "sourcePath": "D:\\An_Dinh\\_training\\blockchain\\faucet\\contracts\\Test.sol",
  "compiler": {
    "name": "solc",
    "version": "0.8.11+commit.d7f03943.Emscripten.clang"
  },
  "schemaVersion": "3.4.5",
  "updatedAt": "2022-02-25T08:09:27.038Z",
  "devdoc": {
    "kind": "dev",
    "methods": {},
    "version": 1
  },
  "userdoc": {
    "kind": "user",
    "methods": {},
    "version": 1
  }
}